{
  "abi": [
    {
      "inputs": [
        {
          "internalType": "address",
          "name": "tokenaddr",
          "type": "address"
        },
        {
          "internalType": "uint256",
          "name": "claim_by_addr",
          "type": "uint256"
        }
      ],
      "stateMutability": "nonpayable",
      "type": "constructor"
    },
    {
      "anonymous": false,
      "inputs": [
        {
          "indexed": false,
          "internalType": "address",
          "name": "_by",
          "type": "address"
        },
        {
          "indexed": false,
          "internalType": "address",
          "name": "_to",
          "type": "address"
        },
        {
          "indexed": false,
          "internalType": "uint256",
          "name": "_value",
          "type": "uint256"
        }
      ],
      "name": "Claimed",
      "type": "event"
    },
    {
      "inputs": [
        {
          "internalType": "address",
          "name": "index",
          "type": "address"
        }
      ],
      "name": "Claim",
      "outputs": [
        {
          "internalType": "uint256",
          "name": "",
          "type": "uint256"
        }
      ],
      "stateMutability": "nonpayable",
      "type": "function"
    },
    {
      "inputs": [
        {
          "internalType": "address",
          "name": "index",
          "type": "address"
        }
      ],
      "name": "ClaimedAmount",
      "outputs": [
        {
          "internalType": "uint256",
          "name": "",
          "type": "uint256"
        }
      ],
      "stateMutability": "view",
      "type": "function"
    },
    {
      "inputs": [],
      "name": "Recovertokens",
      "outputs": [
        {
          "internalType": "bool",
          "name": "",
          "type": "bool"
        }
      ],
      "stateMutability": "nonpayable",
      "type": "function"
    },
    {
      "inputs": [],
      "name": "_root",
      "outputs": [
        {
          "internalType": "address",
          "name": "",
          "type": "address"
        }
      ],
      "stateMutability": "view",
      "type": "function"
    },
    {
      "inputs": [],
      "name": "claimAmount",
      "outputs": [
        {
          "internalType": "uint256",
          "name": "",
          "type": "uint256"
        }
      ],
      "stateMutability": "view",
      "type": "function"
    },
    {
      "inputs": [
        {
          "internalType": "address",
          "name": "",
          "type": "address"
        }
      ],
      "name": "claimed",
      "outputs": [
        {
          "internalType": "uint256",
          "name": "",
          "type": "uint256"
        }
      ],
      "stateMutability": "view",
      "type": "function"
    },
    {
      "inputs": [],
      "name": "token",
      "outputs": [
        {
          "internalType": "address",
          "name": "",
          "type": "address"
        }
      ],
      "stateMutability": "view",
      "type": "function"
    }
  ],
  "bytecode": "60e060405234801561001057600080fd5b506040516107a23803806107a283398101604081905261002f9161004f565b6001600160601b0319606092831b1660805260c05232901b60a052610087565b60008060408385031215610061578182fd5b82516001600160a01b0381168114610077578283fd5b6020939093015192949293505050565b60805160601c60a05160601c60c0516106a86100fa6000396000818160d6015281816101e1015281816102ec0152818161033e015261059b0152600081816101150152818161036f01526104a6015260008181610174015281816102070152818161040d01526104d801526106a86000f3fe608060405234801561001057600080fd5b506004361061007d5760003560e01c80638ef376c41161005b5780638ef376c4146100f8578063c61b586214610110578063c884ef831461014f578063fc0c546a1461016f5761007d565b80630aa64707146100825780630c7ef932146100be578063830953ab146100d1575b600080fd5b6100ab6100903660046105cf565b6001600160a01b031660009081526020819052604090205490565b6040519081526020015b60405180910390f35b6100ab6100cc3660046105cf565b610196565b6100ab7f000000000000000000000000000000000000000000000000000000000000000081565b610100610362565b60405190151581526020016100b5565b6101377f000000000000000000000000000000000000000000000000000000000000000081565b6040516001600160a01b0390911681526020016100b5565b6100ab61015d3660046105cf565b60006020819052908152604090205481565b6101377f000000000000000000000000000000000000000000000000000000000000000081565b6001600160a01b038116600090815260208190526040812054156101b957600080fd5b6101c28261055c565b60405163a9059cbb60e01b81526001600160a01b0383811660048301527f000000000000000000000000000000000000000000000000000000000000000060248301527f0000000000000000000000000000000000000000000000000000000000000000169063a9059cbb90604401602060405180830381600087803b15801561024b57600080fd5b505af115801561025f573d6000803e3d6000fd5b505050506040513d601f19601f8201168201806040525081019061028391906105fd565b6102d45760405162461bcd60e51b815260206004820152601c60248201527f41697264726f703a206572726f72207472616e73666572656e6369610000000060448201526064015b60405180910390fd5b604080513381526001600160a01b03841660208201527f00000000000000000000000000000000000000000000000000000000000000008183015290517ff7a40077ff7a04c7e61f6f26fb13774259ddf1b6bce9ecf26a8276cdd39926839181900360600190a1507f0000000000000000000000000000000000000000000000000000000000000000919050565b6000326001600160a01b037f000000000000000000000000000000000000000000000000000000000000000016146103dc5760405162461bcd60e51b815260206004820152601560248201527f74782e6f726967696e206973206e6f7420726f6f74000000000000000000000060448201526064016102cb565b6040517f70a082310000000000000000000000000000000000000000000000000000000081523060048201526000907f00000000000000000000000000000000000000000000000000000000000000006001600160a01b0316906370a082319060240160206040518083038186803b15801561045757600080fd5b505afa15801561046b573d6000803e3d6000fd5b505050506040513d601f19601f8201168201806040525081019061048f919061061d565b60405163a9059cbb60e01b81526001600160a01b037f000000000000000000000000000000000000000000000000000000000000000081166004830152602482018390529192507f00000000000000000000000000000000000000000000000000000000000000009091169063a9059cbb90604401602060405180830381600087803b15801561051e57600080fd5b505af1158015610532573d6000803e3d6000fd5b505050506040513d601f19601f8201168201806040525081019061055691906105fd565b91505090565b6001600160a01b0381166000908152602081905260409020541561057f57600080fd5b6001600160a01b038116600090815260208190526040812080547f000000000000000000000000000000000000000000000000000000000000000092906105c7908490610635565b909155505050565b6000602082840312156105e0578081fd5b81356001600160a01b03811681146105f6578182fd5b9392505050565b60006020828403121561060e578081fd5b815180151581146105f6578182fd5b60006020828403121561062e578081fd5b5051919050565b6000821982111561066d577f4e487b710000000000000000000000000000000000000000000000000000000081526011600452602481fd5b50019056fea2646970667358221220ba711faa1b3965689fb231c696451b7a3373c574bdf31cb079c5fe6e3cee59e464736f6c63430008030033",
  "bytecodeSha1": "0f3072452e51fbaa0f24c36cff98ef215d0e67ce",
  "compiler": {
    "evm_version": "istanbul",
    "optimizer": {
      "enabled": true,
      "runs": 1000
    },
    "version": "0.8.3+commit.8d00100c"
  },
  "contractName": "Faucet",
  "language": "Solidity",
  "natspec": {
    "kind": "dev",
    "methods": {},
    "version": 1
  },
  "opcodes": "PUSH1 0x80 PUSH1 0x40 MSTORE CALLVALUE DUP1 ISZERO PUSH2 0x10 JUMPI PUSH1 0x0 DUP1 REVERT JUMPDEST POP PUSH1 0x4 CALLDATASIZE LT PUSH2 0x7D JUMPI PUSH1 0x0 CALLDATALOAD PUSH1 0xE0 SHR DUP1 PUSH4 0x8EF376C4 GT PUSH2 0x5B JUMPI DUP1 PUSH4 0x8EF376C4 EQ PUSH2 0xF8 JUMPI DUP1 PUSH4 0xC61B5862 EQ PUSH2 0x110 JUMPI DUP1 PUSH4 0xC884EF83 EQ PUSH2 0x14F JUMPI DUP1 PUSH4 0xFC0C546A EQ PUSH2 0x16F JUMPI PUSH2 0x7D JUMP JUMPDEST DUP1 PUSH4 0xAA64707 EQ PUSH2 0x82 JUMPI DUP1 PUSH4 0xC7EF932 EQ PUSH2 0xBE JUMPI DUP1 PUSH4 0x830953AB EQ PUSH2 0xD1 JUMPI JUMPDEST PUSH1 0x0 DUP1 REVERT JUMPDEST PUSH2 0xAB PUSH2 0x90 CALLDATASIZE PUSH1 0x4 PUSH2 0x5CF JUMP JUMPDEST PUSH1 0x1 PUSH1 0x1 PUSH1 0xA0 SHL SUB AND PUSH1 0x0 SWAP1 DUP2 MSTORE PUSH1 0x20 DUP2 SWAP1 MSTORE PUSH1 0x40 SWAP1 KECCAK256 SLOAD SWAP1 JUMP JUMPDEST PUSH1 0x40 MLOAD SWAP1 DUP2 MSTORE PUSH1 0x20 ADD JUMPDEST PUSH1 0x40 MLOAD DUP1 SWAP2 SUB SWAP1 RETURN JUMPDEST PUSH2 0xAB PUSH2 0xCC CALLDATASIZE PUSH1 0x4 PUSH2 0x5CF JUMP JUMPDEST PUSH2 0x196 JUMP JUMPDEST PUSH2 0xAB PUSH32 0x0 DUP2 JUMP JUMPDEST PUSH2 0x100 PUSH2 0x362 JUMP JUMPDEST PUSH1 0x40 MLOAD SWAP1 ISZERO ISZERO DUP2 MSTORE PUSH1 0x20 ADD PUSH2 0xB5 JUMP JUMPDEST PUSH2 0x137 PUSH32 0x0 DUP2 JUMP JUMPDEST PUSH1 0x40 MLOAD PUSH1 0x1 PUSH1 0x1 PUSH1 0xA0 SHL SUB SWAP1 SWAP2 AND DUP2 MSTORE PUSH1 0x20 ADD PUSH2 0xB5 JUMP JUMPDEST PUSH2 0xAB PUSH2 0x15D CALLDATASIZE PUSH1 0x4 PUSH2 0x5CF JUMP JUMPDEST PUSH1 0x0 PUSH1 0x20 DUP2 SWAP1 MSTORE SWAP1 DUP2 MSTORE PUSH1 0x40 SWAP1 KECCAK256 SLOAD DUP2 JUMP JUMPDEST PUSH2 0x137 PUSH32 0x0 DUP2 JUMP JUMPDEST PUSH1 0x1 PUSH1 0x1 PUSH1 0xA0 SHL SUB DUP2 AND PUSH1 0x0 SWAP1 DUP2 MSTORE PUSH1 0x20 DUP2 SWAP1 MSTORE PUSH1 0x40 DUP2 KECCAK256 SLOAD ISZERO PUSH2 0x1B9 JUMPI PUSH1 0x0 DUP1 REVERT JUMPDEST PUSH2 0x1C2 DUP3 PUSH2 0x55C JUMP JUMPDEST PUSH1 0x40 MLOAD PUSH4 0xA9059CBB PUSH1 0xE0 SHL DUP2 MSTORE PUSH1 0x1 PUSH1 0x1 PUSH1 0xA0 SHL SUB DUP4 DUP2 AND PUSH1 0x4 DUP4 ADD MSTORE PUSH32 0x0 PUSH1 0x24 DUP4 ADD MSTORE PUSH32 0x0 AND SWAP1 PUSH4 0xA9059CBB SWAP1 PUSH1 0x44 ADD PUSH1 0x20 PUSH1 0x40 MLOAD DUP1 DUP4 SUB DUP2 PUSH1 0x0 DUP8 DUP1 EXTCODESIZE ISZERO DUP1 ISZERO PUSH2 0x24B JUMPI PUSH1 0x0 DUP1 REVERT JUMPDEST POP GAS CALL ISZERO DUP1 ISZERO PUSH2 0x25F JUMPI RETURNDATASIZE PUSH1 0x0 DUP1 RETURNDATACOPY RETURNDATASIZE PUSH1 0x0 REVERT JUMPDEST POP POP POP POP PUSH1 0x40 MLOAD RETURNDATASIZE PUSH1 0x1F NOT PUSH1 0x1F DUP3 ADD AND DUP3 ADD DUP1 PUSH1 0x40 MSTORE POP DUP2 ADD SWAP1 PUSH2 0x283 SWAP2 SWAP1 PUSH2 0x5FD JUMP JUMPDEST PUSH2 0x2D4 JUMPI PUSH1 0x40 MLOAD PUSH3 0x461BCD PUSH1 0xE5 SHL DUP2 MSTORE PUSH1 0x20 PUSH1 0x4 DUP3 ADD MSTORE PUSH1 0x1C PUSH1 0x24 DUP3 ADD MSTORE PUSH32 0x41697264726F703A206572726F72207472616E73666572656E63696100000000 PUSH1 0x44 DUP3 ADD MSTORE PUSH1 0x64 ADD JUMPDEST PUSH1 0x40 MLOAD DUP1 SWAP2 SUB SWAP1 REVERT JUMPDEST PUSH1 0x40 DUP1 MLOAD CALLER DUP2 MSTORE PUSH1 0x1 PUSH1 0x1 PUSH1 0xA0 SHL SUB DUP5 AND PUSH1 0x20 DUP3 ADD MSTORE PUSH32 0x0 DUP2 DUP4 ADD MSTORE SWAP1 MLOAD PUSH32 0xF7A40077FF7A04C7E61F6F26FB13774259DDF1B6BCE9ECF26A8276CDD3992683 SWAP2 DUP2 SWAP1 SUB PUSH1 0x60 ADD SWAP1 LOG1 POP PUSH32 0x0 SWAP2 SWAP1 POP JUMP JUMPDEST PUSH1 0x0 ORIGIN PUSH1 0x1 PUSH1 0x1 PUSH1 0xA0 SHL SUB PUSH32 0x0 AND EQ PUSH2 0x3DC JUMPI PUSH1 0x40 MLOAD PUSH3 0x461BCD PUSH1 0xE5 SHL DUP2 MSTORE PUSH1 0x20 PUSH1 0x4 DUP3 ADD MSTORE PUSH1 0x15 PUSH1 0x24 DUP3 ADD MSTORE PUSH32 0x74782E6F726967696E206973206E6F7420726F6F740000000000000000000000 PUSH1 0x44 DUP3 ADD MSTORE PUSH1 0x64 ADD PUSH2 0x2CB JUMP JUMPDEST PUSH1 0x40 MLOAD PUSH32 0x70A0823100000000000000000000000000000000000000000000000000000000 DUP2 MSTORE ADDRESS PUSH1 0x4 DUP3 ADD MSTORE PUSH1 0x0 SWAP1 PUSH32 0x0 PUSH1 0x1 PUSH1 0x1 PUSH1 0xA0 SHL SUB AND SWAP1 PUSH4 0x70A08231 SWAP1 PUSH1 0x24 ADD PUSH1 0x20 PUSH1 0x40 MLOAD DUP1 DUP4 SUB DUP2 DUP7 DUP1 EXTCODESIZE ISZERO DUP1 ISZERO PUSH2 0x457 JUMPI PUSH1 0x0 DUP1 REVERT JUMPDEST POP GAS STATICCALL ISZERO DUP1 ISZERO PUSH2 0x46B JUMPI RETURNDATASIZE PUSH1 0x0 DUP1 RETURNDATACOPY RETURNDATASIZE PUSH1 0x0 REVERT JUMPDEST POP POP POP POP PUSH1 0x40 MLOAD RETURNDATASIZE PUSH1 0x1F NOT PUSH1 0x1F DUP3 ADD AND DUP3 ADD DUP1 PUSH1 0x40 MSTORE POP DUP2 ADD SWAP1 PUSH2 0x48F SWAP2 SWAP1 PUSH2 0x61D JUMP JUMPDEST PUSH1 0x40 MLOAD PUSH4 0xA9059CBB PUSH1 0xE0 SHL DUP2 MSTORE PUSH1 0x1 PUSH1 0x1 PUSH1 0xA0 SHL SUB PUSH32 0x0 DUP2 AND PUSH1 0x4 DUP4 ADD MSTORE PUSH1 0x24 DUP3 ADD DUP4 SWAP1 MSTORE SWAP2 SWAP3 POP PUSH32 0x0 SWAP1 SWAP2 AND SWAP1 PUSH4 0xA9059CBB SWAP1 PUSH1 0x44 ADD PUSH1 0x20 PUSH1 0x40 MLOAD DUP1 DUP4 SUB DUP2 PUSH1 0x0 DUP8 DUP1 EXTCODESIZE ISZERO DUP1 ISZERO PUSH2 0x51E JUMPI PUSH1 0x0 DUP1 REVERT JUMPDEST POP GAS CALL ISZERO DUP1 ISZERO PUSH2 0x532 JUMPI RETURNDATASIZE PUSH1 0x0 DUP1 RETURNDATACOPY RETURNDATASIZE PUSH1 0x0 REVERT JUMPDEST POP POP POP POP PUSH1 0x40 MLOAD RETURNDATASIZE PUSH1 0x1F NOT PUSH1 0x1F DUP3 ADD AND DUP3 ADD DUP1 PUSH1 0x40 MSTORE POP DUP2 ADD SWAP1 PUSH2 0x556 SWAP2 SWAP1 PUSH2 0x5FD JUMP JUMPDEST SWAP2 POP POP SWAP1 JUMP JUMPDEST PUSH1 0x1 PUSH1 0x1 PUSH1 0xA0 SHL SUB DUP2 AND PUSH1 0x0 SWAP1 DUP2 MSTORE PUSH1 0x20 DUP2 SWAP1 MSTORE PUSH1 0x40 SWAP1 KECCAK256 SLOAD ISZERO PUSH2 0x57F JUMPI PUSH1 0x0 DUP1 REVERT JUMPDEST PUSH1 0x1 PUSH1 0x1 PUSH1 0xA0 SHL SUB DUP2 AND PUSH1 0x0 SWAP1 DUP2 MSTORE PUSH1 0x20 DUP2 SWAP1 MSTORE PUSH1 0x40 DUP2 KECCAK256 DUP1 SLOAD PUSH32 0x0 SWAP3 SWAP1 PUSH2 0x5C7 SWAP1 DUP5 SWAP1 PUSH2 0x635 JUMP JUMPDEST SWAP1 SWAP2 SSTORE POP POP POP JUMP JUMPDEST PUSH1 0x0 PUSH1 0x20 DUP3 DUP5 SUB SLT ISZERO PUSH2 0x5E0 JUMPI DUP1 DUP2 REVERT JUMPDEST DUP2 CALLDATALOAD PUSH1 0x1 PUSH1 0x1 PUSH1 0xA0 SHL SUB DUP2 AND DUP2 EQ PUSH2 0x5F6 JUMPI DUP2 DUP3 REVERT JUMPDEST SWAP4 SWAP3 POP POP POP JUMP JUMPDEST PUSH1 0x0 PUSH1 0x20 DUP3 DUP5 SUB SLT ISZERO PUSH2 0x60E JUMPI DUP1 DUP2 REVERT JUMPDEST DUP2 MLOAD DUP1 ISZERO ISZERO DUP2 EQ PUSH2 0x5F6 JUMPI DUP2 DUP3 REVERT JUMPDEST PUSH1 0x0 PUSH1 0x20 DUP3 DUP5 SUB SLT ISZERO PUSH2 0x62E JUMPI DUP1 DUP2 REVERT JUMPDEST POP MLOAD SWAP2 SWAP1 POP JUMP JUMPDEST PUSH1 0x0 DUP3 NOT DUP3 GT ISZERO PUSH2 0x66D JUMPI PUSH32 0x4E487B7100000000000000000000000000000000000000000000000000000000 DUP2 MSTORE PUSH1 0x11 PUSH1 0x4 MSTORE PUSH1 0x24 DUP2 REVERT JUMPDEST POP ADD SWAP1 JUMP INVALID LOG2 PUSH5 0x6970667358 0x22 SLT KECCAK256 0xBA PUSH18 0x1FAA1B3965689FB231C696451B7A3373C574 0xBD RETURN SHR 0xB0 PUSH26 0xC5FE6E3CEE59E464736F6C634300080300330000000000000000 ",
  "sha1": "0b4ef16e186f992b1980d37446c1d7450ee5f269",
  "source": "// SPDX-License-Identifier: MIT\n\n// Faucet contract\n// Para no tener que dar uno a uno los tokens, tenemos este contrato de \"faucet\"\n//\n// ¿Qué es un Faucet? es una forma muy común de distribuir nuevos Tokens.\n//\n// Consiste en un contrato (que _suele_ tener una página web asociada)\n// que distribuye los tokens a quien los solicita.\n// Así el que crea el token no tiene que pagar por distribuir los tokens,\n// y sólo los interesados 'pagan' a los mineros de la red por el coste de la transacción.\n\npragma solidity >=0.7.0;\n\nimport \"../interfaces/IERC20.sol\";\n \ncontract Faucet {\n\n   // Vamos a hacer un Faucet_muy_ sencillo:\n   //   - No podemos saber de qué país es cada dirección así que:\n   //   - Cada dirección de Ethereum debe poder participar en el Airdrop.\n   //   - A cada dirección que lo solicite le transferimos 1000 unidades del tocken.\n   //   - Sólo se puede participar en el airdrop una sola vez. \n   //   - Si hay algún problema, la transacción _falla_\n   \n   // Primero necesitamos la dirección del contrato del Token\n   \n   address public immutable token;\n   address public immutable _root;\n\n   // También necesitamos una lista de direcciones.\n   // Un \"mapping\" direccion -> a un 0 o 1 bastaría...\n   // .. pero ese tipo de dato no existe en este lenguaje)\n   // .. así que hay que construirlo a mano.\n\n   // este es un bitmap (hay formas más eficientes de hacerlo, pero esta nos sirve)   \n   mapping (address => uint256) public claimed;\n   uint256 public immutable claimAmount;\n\n   event Claimed(address _by, address _to, uint256 _value);\n   \n   // Cantidad solicitada por cada dirección\n   function ClaimedAmount(address index) public view returns (uint256) {\n       return claimed[index];\n   }\n      \n   function _setClaimed(address index) private {\n       require(claimed[index] == 0);\n       claimed[index] += claimAmount;  // No puede desbordar\n   }\n   \n   // Esta funcion es la que permite reclamar los tokens.\n   // No hace falta ser el dueño de la dirección para solicitarlo.\n   // De todos modos... ¿quién puede querer enviar tokens a otro?\n   // Hmm.. ¿puede haber alguna implicación legal de eso?\n   \n   function Claim(address index) public returns (uint256) {\n      // hmm... ¿dejamos que lo haga un contrato?\n      // si no => require(msg.sender == tx.origin, \"Only humans\");\n      require(ClaimedAmount(index) == 0);\n      _setClaimed(index);\n      // Hacemos la transferencia y revertimos operacion si da algún error\n      require(iERC20(token).transfer(index, claimAmount), \"Airdrop: error transferencia\");\n      emit Claimed(msg.sender, index, claimAmount);\n      return claimAmount;\n   }\n\n   // Cuando acabe el tiempo del airdrop se pueden recuperar\n   // Si hay alguna logica en el token que no lo permita...\n\n   function Recovertokens() public returns (bool) {\n      require(tx.origin == _root, \"tx.origin is not root\");\n      uint256 allbalance = iERC20(token).balanceOf(address(this));\n      return iERC20(token).transfer(_root, allbalance);\n   }\n   \n   // Necesitamos construir el contrato (instanciar)\n   // Constructor\n\n   constructor(address tokenaddr, uint256 claim_by_addr) {\n       token = tokenaddr;\n       claimAmount = claim_by_addr;\n       _root = tx.origin;  // La persona (humana?) que crea el contrato.\n   }\n\n}\n",
  "sourcePath": "contracts/Faucet.sol",
  "type": "contract"
}