{
  "abi": [
    {
      "inputs": [],
      "stateMutability": "nonpayable",
      "type": "constructor"
    },
    {
      "anonymous": false,
      "inputs": [
        {
          "indexed": true,
          "internalType": "address",
          "name": "_owner",
          "type": "address"
        },
        {
          "indexed": true,
          "internalType": "address",
          "name": "_spender",
          "type": "address"
        },
        {
          "indexed": false,
          "internalType": "uint256",
          "name": "_value",
          "type": "uint256"
        }
      ],
      "name": "Approval",
      "type": "event"
    },
    {
      "anonymous": false,
      "inputs": [
        {
          "indexed": false,
          "internalType": "address",
          "name": "tx_origin",
          "type": "address"
        },
        {
          "indexed": false,
          "internalType": "address",
          "name": "msg_sender",
          "type": "address"
        },
        {
          "indexed": false,
          "internalType": "address",
          "name": "oldroot",
          "type": "address"
        },
        {
          "indexed": false,
          "internalType": "address",
          "name": "newroot",
          "type": "address"
        }
      ],
      "name": "SetRootAttempt",
      "type": "event"
    },
    {
      "anonymous": false,
      "inputs": [
        {
          "indexed": true,
          "internalType": "address",
          "name": "_from",
          "type": "address"
        },
        {
          "indexed": true,
          "internalType": "address",
          "name": "_to",
          "type": "address"
        },
        {
          "indexed": false,
          "internalType": "uint256",
          "name": "_value",
          "type": "uint256"
        }
      ],
      "name": "Transfer",
      "type": "event"
    },
    {
      "inputs": [],
      "name": "_totalSupply",
      "outputs": [
        {
          "internalType": "uint256",
          "name": "",
          "type": "uint256"
        }
      ],
      "stateMutability": "view",
      "type": "function"
    },
    {
      "inputs": [
        {
          "internalType": "address",
          "name": "_owner",
          "type": "address"
        },
        {
          "internalType": "address",
          "name": "_spender",
          "type": "address"
        }
      ],
      "name": "allowance",
      "outputs": [
        {
          "internalType": "uint256",
          "name": "remaining",
          "type": "uint256"
        }
      ],
      "stateMutability": "view",
      "type": "function"
    },
    {
      "inputs": [
        {
          "internalType": "address",
          "name": "",
          "type": "address"
        },
        {
          "internalType": "address",
          "name": "",
          "type": "address"
        }
      ],
      "name": "allowed",
      "outputs": [
        {
          "internalType": "uint256",
          "name": "",
          "type": "uint256"
        }
      ],
      "stateMutability": "view",
      "type": "function"
    },
    {
      "inputs": [
        {
          "internalType": "address",
          "name": "_to",
          "type": "address"
        },
        {
          "internalType": "uint256",
          "name": "_value",
          "type": "uint256"
        }
      ],
      "name": "approve",
      "outputs": [
        {
          "internalType": "bool",
          "name": "success",
          "type": "bool"
        }
      ],
      "stateMutability": "nonpayable",
      "type": "function"
    },
    {
      "inputs": [
        {
          "internalType": "address",
          "name": "_quien",
          "type": "address"
        }
      ],
      "name": "balanceOf",
      "outputs": [
        {
          "internalType": "uint256",
          "name": "_balance",
          "type": "uint256"
        }
      ],
      "stateMutability": "view",
      "type": "function"
    },
    {
      "inputs": [],
      "name": "decimals",
      "outputs": [
        {
          "internalType": "uint8",
          "name": "",
          "type": "uint8"
        }
      ],
      "stateMutability": "view",
      "type": "function"
    },
    {
      "inputs": [],
      "name": "getRoot",
      "outputs": [
        {
          "internalType": "address",
          "name": "",
          "type": "address"
        }
      ],
      "stateMutability": "view",
      "type": "function"
    },
    {
      "inputs": [
        {
          "internalType": "address",
          "name": "addy",
          "type": "address"
        }
      ],
      "name": "isRoot",
      "outputs": [
        {
          "internalType": "bool",
          "name": "",
          "type": "bool"
        }
      ],
      "stateMutability": "view",
      "type": "function"
    },
    {
      "inputs": [],
      "name": "maxbalance_per_addr",
      "outputs": [
        {
          "internalType": "uint256",
          "name": "",
          "type": "uint256"
        }
      ],
      "stateMutability": "view",
      "type": "function"
    },
    {
      "inputs": [],
      "name": "name",
      "outputs": [
        {
          "internalType": "string",
          "name": "",
          "type": "string"
        }
      ],
      "stateMutability": "view",
      "type": "function"
    },
    {
      "inputs": [
        {
          "internalType": "uint256",
          "name": "maxbal",
          "type": "uint256"
        }
      ],
      "name": "setMaxBalancePerAddress",
      "outputs": [
        {
          "internalType": "uint256",
          "name": "",
          "type": "uint256"
        }
      ],
      "stateMutability": "nonpayable",
      "type": "function"
    },
    {
      "inputs": [
        {
          "internalType": "address",
          "name": "_newroot",
          "type": "address"
        }
      ],
      "name": "setRoot",
      "outputs": [
        {
          "internalType": "address",
          "name": "",
          "type": "address"
        }
      ],
      "stateMutability": "nonpayable",
      "type": "function"
    },
    {
      "inputs": [],
      "name": "symbol",
      "outputs": [
        {
          "internalType": "string",
          "name": "",
          "type": "string"
        }
      ],
      "stateMutability": "view",
      "type": "function"
    },
    {
      "inputs": [],
      "name": "totalSupply",
      "outputs": [
        {
          "internalType": "uint256",
          "name": "",
          "type": "uint256"
        }
      ],
      "stateMutability": "view",
      "type": "function"
    },
    {
      "inputs": [
        {
          "internalType": "address",
          "name": "_to",
          "type": "address"
        },
        {
          "internalType": "uint256",
          "name": "_value",
          "type": "uint256"
        }
      ],
      "name": "transfer",
      "outputs": [
        {
          "internalType": "bool",
          "name": "success",
          "type": "bool"
        }
      ],
      "stateMutability": "nonpayable",
      "type": "function"
    },
    {
      "inputs": [
        {
          "internalType": "address",
          "name": "_from",
          "type": "address"
        },
        {
          "internalType": "address",
          "name": "_to",
          "type": "address"
        },
        {
          "internalType": "uint256",
          "name": "_value",
          "type": "uint256"
        }
      ],
      "name": "transferFrom",
      "outputs": [
        {
          "internalType": "bool",
          "name": "success",
          "type": "bool"
        }
      ],
      "stateMutability": "nonpayable",
      "type": "function"
    }
  ],
  "bytecode": "608060405266a6fa40407180006000556402540be40060015534801561002457600080fd5b50600080543382526003602052604090912055600280546001600160a01b03191632179055610a0f806100586000396000f3fe608060405234801561001057600080fd5b50600436106100ff5760003560e01c80635c658165116100975780637edabc4f116100665780637edabc4f1461027357806395d89b411461027c578063a9059cbb146102b8578063dd62ed3e146102cb576100ff565b80635c658165146101fb5780635ca1e1651461022657806370a08231146102375780637519508c14610260576100ff565b806323b872dd116100d357806323b872dd146101b2578063313ce567146101c55780633eaaf86b146101df578063557a6403146101e8576100ff565b80623ba1ed1461010457806306fdde0314610134578063095ea7b31461017d57806318160ddd146101a0575b600080fd5b610117610112366004610859565b610304565b6040516001600160a01b0390911681526020015b60405180910390f35b6101706040518060400160405280600d81526020017f417975736f20436f696e2076310000000000000000000000000000000000000081525081565b60405161012b9190610928565b61019061018b3660046108e7565b6103a7565b604051901515815260200161012b565b6000545b60405190815260200161012b565b6101906101c03660046108ac565b610462565b6101cd600681565b60405160ff909116815260200161012b565b6101a460005481565b6101906101f6366004610859565b6106ce565b6101a461020936600461087a565b600460209081526000928352604080842090915290825290205481565b6002546001600160a01b0316610117565b6101a4610245366004610859565b6001600160a01b031660009081526003602052604090205490565b6101a461026e366004610910565b610706565b6101a460015481565b6101706040518060400160405280600681526020017f415955534f53000000000000000000000000000000000000000000000000000081525081565b6101906102c63660046108e7565b610723565b6101a46102d936600461087a565b6001600160a01b03918216600090815260046020908152604080832093909416825291909152205490565b600254604080513281523360208201526001600160a01b03928316818301529183166060830152516000917fccc7d6b0f3f8ef418622c6270e710f78e00d6d4a2bbc6a8eaf753411c61eae7b919081900360800190a1610363336106ce565b61036c57600080fd5b50600280547fffffffffffffffffffffffff0000000000000000000000000000000000000000166001600160a01b038316179055805b919050565b60003332146103fd5760405162461bcd60e51b815260206004820152600b60248201527f48756d616e73206f6e6c7900000000000000000000000000000000000000000060448201526064015b60405180910390fd5b3360008181526004602090815260408083206001600160a01b03881680855290835292819020869055518581529192917f8c5be1e5ebec7d5bd14f71427d1e84f3dd0314c0f7b2291e5b200ac8c7c3b92591015b60405180910390a350600192915050565b6001600160a01b03808416600081815260046020908152604080832094871683529381528382205492825260039052918220548311156104a157600080fd5b828110156104f15760405162461bcd60e51b815260206004820152601e60248201527f53652064656265207065726d69746972207472616e73666572656e636961000060448201526064016103f4565b6001546001600160a01b03851660009081526003602052604090205461051890859061097b565b11156105665760405162461bcd60e51b815260206004820152601b60248201527f4c696d6974652064652062616c616e636520616c63616e7a61646f000000000060448201526064016103f4565b600019811015610623578061057b8482610993565b106105c85760405162461bcd60e51b815260206004820152601760248201527f457669746120696e746567657220756e646572666c6f7700000000000000000060448201526064016103f4565b6001600160a01b0380861660009081526004602090815260408083209388168352929052908120556105fa8382610993565b3360009081526004602090815260408083206001600160a01b0389168452909152902081905590505b3360009081526003602052604081208054859290610642908490610993565b90915550506001600160a01b0384166000908152600360205260408120805485929061066f90849061097b565b92505081905550836001600160a01b0316856001600160a01b03167fddf252ad1be2c89b69c2b068fc378daa952ba7f163c4a11628f55a4df523b3ef856040516106bb91815260200190565b60405180910390a3506001949350505050565b60003332146106dc57600080fd5b60006106f06002546001600160a01b031690565b6001600160a01b03848116911614915050919050565b6000610711326106ce565b61071a57600080fd5b50600181905590565b3360009081526003602052604081205482111561073f57600080fd5b6001546001600160a01b03841660009081526003602052604090205461076690849061097b565b11156107b45760405162461bcd60e51b815260206004820152601b60248201527f4c696d6974652064652062616c616e636520616c63616e7a61646f000000000060448201526064016103f4565b33600090815260036020526040812080548492906107d3908490610993565b90915550506001600160a01b0383166000908152600360205260408120805484929061080090849061097b565b90915550506040518281526001600160a01b0384169033907fddf252ad1be2c89b69c2b068fc378daa952ba7f163c4a11628f55a4df523b3ef90602001610451565b80356001600160a01b03811681146103a257600080fd5b60006020828403121561086a578081fd5b61087382610842565b9392505050565b6000806040838503121561088c578081fd5b61089583610842565b91506108a360208401610842565b90509250929050565b6000806000606084860312156108c0578081fd5b6108c984610842565b92506108d760208501610842565b9150604084013590509250925092565b600080604083850312156108f9578182fd5b61090283610842565b946020939093013593505050565b600060208284031215610921578081fd5b5035919050565b6000602080835283518082850152825b8181101561095457858101830151858201604001528201610938565b818111156109655783604083870101525b50601f01601f1916929092016040019392505050565b6000821982111561098e5761098e6109aa565b500190565b6000828210156109a5576109a56109aa565b500390565b7f4e487b7100000000000000000000000000000000000000000000000000000000600052601160045260246000fdfea2646970667358221220e5fa957f8857f26d9254f1fb7364ebd11daafe85b20027ab53a005b31f6fc60764736f6c63430008030033",
  "bytecodeSha1": "1e6c3d07843a12c92f1eb55738bc67c6d316d0c6",
  "compiler": {
    "evm_version": "istanbul",
    "optimizer": {
      "enabled": true,
      "runs": 1000
    },
    "version": "0.8.3+commit.8d00100c"
  },
  "contractName": "Ayusocoin",
  "language": "Solidity",
  "natspec": {
    "kind": "dev",
    "methods": {},
    "version": 1
  },
  "opcodes": "PUSH1 0x80 PUSH1 0x40 MSTORE CALLVALUE DUP1 ISZERO PUSH2 0x10 JUMPI PUSH1 0x0 DUP1 REVERT JUMPDEST POP PUSH1 0x4 CALLDATASIZE LT PUSH2 0xFF JUMPI PUSH1 0x0 CALLDATALOAD PUSH1 0xE0 SHR DUP1 PUSH4 0x5C658165 GT PUSH2 0x97 JUMPI DUP1 PUSH4 0x7EDABC4F GT PUSH2 0x66 JUMPI DUP1 PUSH4 0x7EDABC4F EQ PUSH2 0x273 JUMPI DUP1 PUSH4 0x95D89B41 EQ PUSH2 0x27C JUMPI DUP1 PUSH4 0xA9059CBB EQ PUSH2 0x2B8 JUMPI DUP1 PUSH4 0xDD62ED3E EQ PUSH2 0x2CB JUMPI PUSH2 0xFF JUMP JUMPDEST DUP1 PUSH4 0x5C658165 EQ PUSH2 0x1FB JUMPI DUP1 PUSH4 0x5CA1E165 EQ PUSH2 0x226 JUMPI DUP1 PUSH4 0x70A08231 EQ PUSH2 0x237 JUMPI DUP1 PUSH4 0x7519508C EQ PUSH2 0x260 JUMPI PUSH2 0xFF JUMP JUMPDEST DUP1 PUSH4 0x23B872DD GT PUSH2 0xD3 JUMPI DUP1 PUSH4 0x23B872DD EQ PUSH2 0x1B2 JUMPI DUP1 PUSH4 0x313CE567 EQ PUSH2 0x1C5 JUMPI DUP1 PUSH4 0x3EAAF86B EQ PUSH2 0x1DF JUMPI DUP1 PUSH4 0x557A6403 EQ PUSH2 0x1E8 JUMPI PUSH2 0xFF JUMP JUMPDEST DUP1 PUSH3 0x3BA1ED EQ PUSH2 0x104 JUMPI DUP1 PUSH4 0x6FDDE03 EQ PUSH2 0x134 JUMPI DUP1 PUSH4 0x95EA7B3 EQ PUSH2 0x17D JUMPI DUP1 PUSH4 0x18160DDD EQ PUSH2 0x1A0 JUMPI JUMPDEST PUSH1 0x0 DUP1 REVERT JUMPDEST PUSH2 0x117 PUSH2 0x112 CALLDATASIZE PUSH1 0x4 PUSH2 0x859 JUMP JUMPDEST PUSH2 0x304 JUMP JUMPDEST PUSH1 0x40 MLOAD PUSH1 0x1 PUSH1 0x1 PUSH1 0xA0 SHL SUB SWAP1 SWAP2 AND DUP2 MSTORE PUSH1 0x20 ADD JUMPDEST PUSH1 0x40 MLOAD DUP1 SWAP2 SUB SWAP1 RETURN JUMPDEST PUSH2 0x170 PUSH1 0x40 MLOAD DUP1 PUSH1 0x40 ADD PUSH1 0x40 MSTORE DUP1 PUSH1 0xD DUP2 MSTORE PUSH1 0x20 ADD PUSH32 0x417975736F20436F696E20763100000000000000000000000000000000000000 DUP2 MSTORE POP DUP2 JUMP JUMPDEST PUSH1 0x40 MLOAD PUSH2 0x12B SWAP2 SWAP1 PUSH2 0x928 JUMP JUMPDEST PUSH2 0x190 PUSH2 0x18B CALLDATASIZE PUSH1 0x4 PUSH2 0x8E7 JUMP JUMPDEST PUSH2 0x3A7 JUMP JUMPDEST PUSH1 0x40 MLOAD SWAP1 ISZERO ISZERO DUP2 MSTORE PUSH1 0x20 ADD PUSH2 0x12B JUMP JUMPDEST PUSH1 0x0 SLOAD JUMPDEST PUSH1 0x40 MLOAD SWAP1 DUP2 MSTORE PUSH1 0x20 ADD PUSH2 0x12B JUMP JUMPDEST PUSH2 0x190 PUSH2 0x1C0 CALLDATASIZE PUSH1 0x4 PUSH2 0x8AC JUMP JUMPDEST PUSH2 0x462 JUMP JUMPDEST PUSH2 0x1CD PUSH1 0x6 DUP2 JUMP JUMPDEST PUSH1 0x40 MLOAD PUSH1 0xFF SWAP1 SWAP2 AND DUP2 MSTORE PUSH1 0x20 ADD PUSH2 0x12B JUMP JUMPDEST PUSH2 0x1A4 PUSH1 0x0 SLOAD DUP2 JUMP JUMPDEST PUSH2 0x190 PUSH2 0x1F6 CALLDATASIZE PUSH1 0x4 PUSH2 0x859 JUMP JUMPDEST PUSH2 0x6CE JUMP JUMPDEST PUSH2 0x1A4 PUSH2 0x209 CALLDATASIZE PUSH1 0x4 PUSH2 0x87A JUMP JUMPDEST PUSH1 0x4 PUSH1 0x20 SWAP1 DUP2 MSTORE PUSH1 0x0 SWAP3 DUP4 MSTORE PUSH1 0x40 DUP1 DUP5 KECCAK256 SWAP1 SWAP2 MSTORE SWAP1 DUP3 MSTORE SWAP1 KECCAK256 SLOAD DUP2 JUMP JUMPDEST PUSH1 0x2 SLOAD PUSH1 0x1 PUSH1 0x1 PUSH1 0xA0 SHL SUB AND PUSH2 0x117 JUMP JUMPDEST PUSH2 0x1A4 PUSH2 0x245 CALLDATASIZE PUSH1 0x4 PUSH2 0x859 JUMP JUMPDEST PUSH1 0x1 PUSH1 0x1 PUSH1 0xA0 SHL SUB AND PUSH1 0x0 SWAP1 DUP2 MSTORE PUSH1 0x3 PUSH1 0x20 MSTORE PUSH1 0x40 SWAP1 KECCAK256 SLOAD SWAP1 JUMP JUMPDEST PUSH2 0x1A4 PUSH2 0x26E CALLDATASIZE PUSH1 0x4 PUSH2 0x910 JUMP JUMPDEST PUSH2 0x706 JUMP JUMPDEST PUSH2 0x1A4 PUSH1 0x1 SLOAD DUP2 JUMP JUMPDEST PUSH2 0x170 PUSH1 0x40 MLOAD DUP1 PUSH1 0x40 ADD PUSH1 0x40 MSTORE DUP1 PUSH1 0x6 DUP2 MSTORE PUSH1 0x20 ADD PUSH32 0x415955534F530000000000000000000000000000000000000000000000000000 DUP2 MSTORE POP DUP2 JUMP JUMPDEST PUSH2 0x190 PUSH2 0x2C6 CALLDATASIZE PUSH1 0x4 PUSH2 0x8E7 JUMP JUMPDEST PUSH2 0x723 JUMP JUMPDEST PUSH2 0x1A4 PUSH2 0x2D9 CALLDATASIZE PUSH1 0x4 PUSH2 0x87A JUMP JUMPDEST PUSH1 0x1 PUSH1 0x1 PUSH1 0xA0 SHL SUB SWAP2 DUP3 AND PUSH1 0x0 SWAP1 DUP2 MSTORE PUSH1 0x4 PUSH1 0x20 SWAP1 DUP2 MSTORE PUSH1 0x40 DUP1 DUP4 KECCAK256 SWAP4 SWAP1 SWAP5 AND DUP3 MSTORE SWAP2 SWAP1 SWAP2 MSTORE KECCAK256 SLOAD SWAP1 JUMP JUMPDEST PUSH1 0x2 SLOAD PUSH1 0x40 DUP1 MLOAD ORIGIN DUP2 MSTORE CALLER PUSH1 0x20 DUP3 ADD MSTORE PUSH1 0x1 PUSH1 0x1 PUSH1 0xA0 SHL SUB SWAP3 DUP4 AND DUP2 DUP4 ADD MSTORE SWAP2 DUP4 AND PUSH1 0x60 DUP4 ADD MSTORE MLOAD PUSH1 0x0 SWAP2 PUSH32 0xCCC7D6B0F3F8EF418622C6270E710F78E00D6D4A2BBC6A8EAF753411C61EAE7B SWAP2 SWAP1 DUP2 SWAP1 SUB PUSH1 0x80 ADD SWAP1 LOG1 PUSH2 0x363 CALLER PUSH2 0x6CE JUMP JUMPDEST PUSH2 0x36C JUMPI PUSH1 0x0 DUP1 REVERT JUMPDEST POP PUSH1 0x2 DUP1 SLOAD PUSH32 0xFFFFFFFFFFFFFFFFFFFFFFFF0000000000000000000000000000000000000000 AND PUSH1 0x1 PUSH1 0x1 PUSH1 0xA0 SHL SUB DUP4 AND OR SWAP1 SSTORE DUP1 JUMPDEST SWAP2 SWAP1 POP JUMP JUMPDEST PUSH1 0x0 CALLER ORIGIN EQ PUSH2 0x3FD JUMPI PUSH1 0x40 MLOAD PUSH3 0x461BCD PUSH1 0xE5 SHL DUP2 MSTORE PUSH1 0x20 PUSH1 0x4 DUP3 ADD MSTORE PUSH1 0xB PUSH1 0x24 DUP3 ADD MSTORE PUSH32 0x48756D616E73206F6E6C79000000000000000000000000000000000000000000 PUSH1 0x44 DUP3 ADD MSTORE PUSH1 0x64 ADD JUMPDEST PUSH1 0x40 MLOAD DUP1 SWAP2 SUB SWAP1 REVERT JUMPDEST CALLER PUSH1 0x0 DUP2 DUP2 MSTORE PUSH1 0x4 PUSH1 0x20 SWAP1 DUP2 MSTORE PUSH1 0x40 DUP1 DUP4 KECCAK256 PUSH1 0x1 PUSH1 0x1 PUSH1 0xA0 SHL SUB DUP9 AND DUP1 DUP6 MSTORE SWAP1 DUP4 MSTORE SWAP3 DUP2 SWAP1 KECCAK256 DUP7 SWAP1 SSTORE MLOAD DUP6 DUP2 MSTORE SWAP2 SWAP3 SWAP2 PUSH32 0x8C5BE1E5EBEC7D5BD14F71427D1E84F3DD0314C0F7B2291E5B200AC8C7C3B925 SWAP2 ADD JUMPDEST PUSH1 0x40 MLOAD DUP1 SWAP2 SUB SWAP1 LOG3 POP PUSH1 0x1 SWAP3 SWAP2 POP POP JUMP JUMPDEST PUSH1 0x1 PUSH1 0x1 PUSH1 0xA0 SHL SUB DUP1 DUP5 AND PUSH1 0x0 DUP2 DUP2 MSTORE PUSH1 0x4 PUSH1 0x20 SWAP1 DUP2 MSTORE PUSH1 0x40 DUP1 DUP4 KECCAK256 SWAP5 DUP8 AND DUP4 MSTORE SWAP4 DUP2 MSTORE DUP4 DUP3 KECCAK256 SLOAD SWAP3 DUP3 MSTORE PUSH1 0x3 SWAP1 MSTORE SWAP2 DUP3 KECCAK256 SLOAD DUP4 GT ISZERO PUSH2 0x4A1 JUMPI PUSH1 0x0 DUP1 REVERT JUMPDEST DUP3 DUP2 LT ISZERO PUSH2 0x4F1 JUMPI PUSH1 0x40 MLOAD PUSH3 0x461BCD PUSH1 0xE5 SHL DUP2 MSTORE PUSH1 0x20 PUSH1 0x4 DUP3 ADD MSTORE PUSH1 0x1E PUSH1 0x24 DUP3 ADD MSTORE PUSH32 0x53652064656265207065726D69746972207472616E73666572656E6369610000 PUSH1 0x44 DUP3 ADD MSTORE PUSH1 0x64 ADD PUSH2 0x3F4 JUMP JUMPDEST PUSH1 0x1 SLOAD PUSH1 0x1 PUSH1 0x1 PUSH1 0xA0 SHL SUB DUP6 AND PUSH1 0x0 SWAP1 DUP2 MSTORE PUSH1 0x3 PUSH1 0x20 MSTORE PUSH1 0x40 SWAP1 KECCAK256 SLOAD PUSH2 0x518 SWAP1 DUP6 SWAP1 PUSH2 0x97B JUMP JUMPDEST GT ISZERO PUSH2 0x566 JUMPI PUSH1 0x40 MLOAD PUSH3 0x461BCD PUSH1 0xE5 SHL DUP2 MSTORE PUSH1 0x20 PUSH1 0x4 DUP3 ADD MSTORE PUSH1 0x1B PUSH1 0x24 DUP3 ADD MSTORE PUSH32 0x4C696D6974652064652062616C616E636520616C63616E7A61646F0000000000 PUSH1 0x44 DUP3 ADD MSTORE PUSH1 0x64 ADD PUSH2 0x3F4 JUMP JUMPDEST PUSH1 0x0 NOT DUP2 LT ISZERO PUSH2 0x623 JUMPI DUP1 PUSH2 0x57B DUP5 DUP3 PUSH2 0x993 JUMP JUMPDEST LT PUSH2 0x5C8 JUMPI PUSH1 0x40 MLOAD PUSH3 0x461BCD PUSH1 0xE5 SHL DUP2 MSTORE PUSH1 0x20 PUSH1 0x4 DUP3 ADD MSTORE PUSH1 0x17 PUSH1 0x24 DUP3 ADD MSTORE PUSH32 0x457669746120696E746567657220756E646572666C6F77000000000000000000 PUSH1 0x44 DUP3 ADD MSTORE PUSH1 0x64 ADD PUSH2 0x3F4 JUMP JUMPDEST PUSH1 0x1 PUSH1 0x1 PUSH1 0xA0 SHL SUB DUP1 DUP7 AND PUSH1 0x0 SWAP1 DUP2 MSTORE PUSH1 0x4 PUSH1 0x20 SWAP1 DUP2 MSTORE PUSH1 0x40 DUP1 DUP4 KECCAK256 SWAP4 DUP9 AND DUP4 MSTORE SWAP3 SWAP1 MSTORE SWAP1 DUP2 KECCAK256 SSTORE PUSH2 0x5FA DUP4 DUP3 PUSH2 0x993 JUMP JUMPDEST CALLER PUSH1 0x0 SWAP1 DUP2 MSTORE PUSH1 0x4 PUSH1 0x20 SWAP1 DUP2 MSTORE PUSH1 0x40 DUP1 DUP4 KECCAK256 PUSH1 0x1 PUSH1 0x1 PUSH1 0xA0 SHL SUB DUP10 AND DUP5 MSTORE SWAP1 SWAP2 MSTORE SWAP1 KECCAK256 DUP2 SWAP1 SSTORE SWAP1 POP JUMPDEST CALLER PUSH1 0x0 SWAP1 DUP2 MSTORE PUSH1 0x3 PUSH1 0x20 MSTORE PUSH1 0x40 DUP2 KECCAK256 DUP1 SLOAD DUP6 SWAP3 SWAP1 PUSH2 0x642 SWAP1 DUP5 SWAP1 PUSH2 0x993 JUMP JUMPDEST SWAP1 SWAP2 SSTORE POP POP PUSH1 0x1 PUSH1 0x1 PUSH1 0xA0 SHL SUB DUP5 AND PUSH1 0x0 SWAP1 DUP2 MSTORE PUSH1 0x3 PUSH1 0x20 MSTORE PUSH1 0x40 DUP2 KECCAK256 DUP1 SLOAD DUP6 SWAP3 SWAP1 PUSH2 0x66F SWAP1 DUP5 SWAP1 PUSH2 0x97B JUMP JUMPDEST SWAP3 POP POP DUP2 SWAP1 SSTORE POP DUP4 PUSH1 0x1 PUSH1 0x1 PUSH1 0xA0 SHL SUB AND DUP6 PUSH1 0x1 PUSH1 0x1 PUSH1 0xA0 SHL SUB AND PUSH32 0xDDF252AD1BE2C89B69C2B068FC378DAA952BA7F163C4A11628F55A4DF523B3EF DUP6 PUSH1 0x40 MLOAD PUSH2 0x6BB SWAP2 DUP2 MSTORE PUSH1 0x20 ADD SWAP1 JUMP JUMPDEST PUSH1 0x40 MLOAD DUP1 SWAP2 SUB SWAP1 LOG3 POP PUSH1 0x1 SWAP5 SWAP4 POP POP POP POP JUMP JUMPDEST PUSH1 0x0 CALLER ORIGIN EQ PUSH2 0x6DC JUMPI PUSH1 0x0 DUP1 REVERT JUMPDEST PUSH1 0x0 PUSH2 0x6F0 PUSH1 0x2 SLOAD PUSH1 0x1 PUSH1 0x1 PUSH1 0xA0 SHL SUB AND SWAP1 JUMP JUMPDEST PUSH1 0x1 PUSH1 0x1 PUSH1 0xA0 SHL SUB DUP5 DUP2 AND SWAP2 AND EQ SWAP2 POP POP SWAP2 SWAP1 POP JUMP JUMPDEST PUSH1 0x0 PUSH2 0x711 ORIGIN PUSH2 0x6CE JUMP JUMPDEST PUSH2 0x71A JUMPI PUSH1 0x0 DUP1 REVERT JUMPDEST POP PUSH1 0x1 DUP2 SWAP1 SSTORE SWAP1 JUMP JUMPDEST CALLER PUSH1 0x0 SWAP1 DUP2 MSTORE PUSH1 0x3 PUSH1 0x20 MSTORE PUSH1 0x40 DUP2 KECCAK256 SLOAD DUP3 GT ISZERO PUSH2 0x73F JUMPI PUSH1 0x0 DUP1 REVERT JUMPDEST PUSH1 0x1 SLOAD PUSH1 0x1 PUSH1 0x1 PUSH1 0xA0 SHL SUB DUP5 AND PUSH1 0x0 SWAP1 DUP2 MSTORE PUSH1 0x3 PUSH1 0x20 MSTORE PUSH1 0x40 SWAP1 KECCAK256 SLOAD PUSH2 0x766 SWAP1 DUP5 SWAP1 PUSH2 0x97B JUMP JUMPDEST GT ISZERO PUSH2 0x7B4 JUMPI PUSH1 0x40 MLOAD PUSH3 0x461BCD PUSH1 0xE5 SHL DUP2 MSTORE PUSH1 0x20 PUSH1 0x4 DUP3 ADD MSTORE PUSH1 0x1B PUSH1 0x24 DUP3 ADD MSTORE PUSH32 0x4C696D6974652064652062616C616E636520616C63616E7A61646F0000000000 PUSH1 0x44 DUP3 ADD MSTORE PUSH1 0x64 ADD PUSH2 0x3F4 JUMP JUMPDEST CALLER PUSH1 0x0 SWAP1 DUP2 MSTORE PUSH1 0x3 PUSH1 0x20 MSTORE PUSH1 0x40 DUP2 KECCAK256 DUP1 SLOAD DUP5 SWAP3 SWAP1 PUSH2 0x7D3 SWAP1 DUP5 SWAP1 PUSH2 0x993 JUMP JUMPDEST SWAP1 SWAP2 SSTORE POP POP PUSH1 0x1 PUSH1 0x1 PUSH1 0xA0 SHL SUB DUP4 AND PUSH1 0x0 SWAP1 DUP2 MSTORE PUSH1 0x3 PUSH1 0x20 MSTORE PUSH1 0x40 DUP2 KECCAK256 DUP1 SLOAD DUP5 SWAP3 SWAP1 PUSH2 0x800 SWAP1 DUP5 SWAP1 PUSH2 0x97B JUMP JUMPDEST SWAP1 SWAP2 SSTORE POP POP PUSH1 0x40 MLOAD DUP3 DUP2 MSTORE PUSH1 0x1 PUSH1 0x1 PUSH1 0xA0 SHL SUB DUP5 AND SWAP1 CALLER SWAP1 PUSH32 0xDDF252AD1BE2C89B69C2B068FC378DAA952BA7F163C4A11628F55A4DF523B3EF SWAP1 PUSH1 0x20 ADD PUSH2 0x451 JUMP JUMPDEST DUP1 CALLDATALOAD PUSH1 0x1 PUSH1 0x1 PUSH1 0xA0 SHL SUB DUP2 AND DUP2 EQ PUSH2 0x3A2 JUMPI PUSH1 0x0 DUP1 REVERT JUMPDEST PUSH1 0x0 PUSH1 0x20 DUP3 DUP5 SUB SLT ISZERO PUSH2 0x86A JUMPI DUP1 DUP2 REVERT JUMPDEST PUSH2 0x873 DUP3 PUSH2 0x842 JUMP JUMPDEST SWAP4 SWAP3 POP POP POP JUMP JUMPDEST PUSH1 0x0 DUP1 PUSH1 0x40 DUP4 DUP6 SUB SLT ISZERO PUSH2 0x88C JUMPI DUP1 DUP2 REVERT JUMPDEST PUSH2 0x895 DUP4 PUSH2 0x842 JUMP JUMPDEST SWAP2 POP PUSH2 0x8A3 PUSH1 0x20 DUP5 ADD PUSH2 0x842 JUMP JUMPDEST SWAP1 POP SWAP3 POP SWAP3 SWAP1 POP JUMP JUMPDEST PUSH1 0x0 DUP1 PUSH1 0x0 PUSH1 0x60 DUP5 DUP7 SUB SLT ISZERO PUSH2 0x8C0 JUMPI DUP1 DUP2 REVERT JUMPDEST PUSH2 0x8C9 DUP5 PUSH2 0x842 JUMP JUMPDEST SWAP3 POP PUSH2 0x8D7 PUSH1 0x20 DUP6 ADD PUSH2 0x842 JUMP JUMPDEST SWAP2 POP PUSH1 0x40 DUP5 ADD CALLDATALOAD SWAP1 POP SWAP3 POP SWAP3 POP SWAP3 JUMP JUMPDEST PUSH1 0x0 DUP1 PUSH1 0x40 DUP4 DUP6 SUB SLT ISZERO PUSH2 0x8F9 JUMPI DUP2 DUP3 REVERT JUMPDEST PUSH2 0x902 DUP4 PUSH2 0x842 JUMP JUMPDEST SWAP5 PUSH1 0x20 SWAP4 SWAP1 SWAP4 ADD CALLDATALOAD SWAP4 POP POP POP JUMP JUMPDEST PUSH1 0x0 PUSH1 0x20 DUP3 DUP5 SUB SLT ISZERO PUSH2 0x921 JUMPI DUP1 DUP2 REVERT JUMPDEST POP CALLDATALOAD SWAP2 SWAP1 POP JUMP JUMPDEST PUSH1 0x0 PUSH1 0x20 DUP1 DUP4 MSTORE DUP4 MLOAD DUP1 DUP3 DUP6 ADD MSTORE DUP3 JUMPDEST DUP2 DUP2 LT ISZERO PUSH2 0x954 JUMPI DUP6 DUP2 ADD DUP4 ADD MLOAD DUP6 DUP3 ADD PUSH1 0x40 ADD MSTORE DUP3 ADD PUSH2 0x938 JUMP JUMPDEST DUP2 DUP2 GT ISZERO PUSH2 0x965 JUMPI DUP4 PUSH1 0x40 DUP4 DUP8 ADD ADD MSTORE JUMPDEST POP PUSH1 0x1F ADD PUSH1 0x1F NOT AND SWAP3 SWAP1 SWAP3 ADD PUSH1 0x40 ADD SWAP4 SWAP3 POP POP POP JUMP JUMPDEST PUSH1 0x0 DUP3 NOT DUP3 GT ISZERO PUSH2 0x98E JUMPI PUSH2 0x98E PUSH2 0x9AA JUMP JUMPDEST POP ADD SWAP1 JUMP JUMPDEST PUSH1 0x0 DUP3 DUP3 LT ISZERO PUSH2 0x9A5 JUMPI PUSH2 0x9A5 PUSH2 0x9AA JUMP JUMPDEST POP SUB SWAP1 JUMP JUMPDEST PUSH32 0x4E487B7100000000000000000000000000000000000000000000000000000000 PUSH1 0x0 MSTORE PUSH1 0x11 PUSH1 0x4 MSTORE PUSH1 0x24 PUSH1 0x0 REVERT INVALID LOG2 PUSH5 0x6970667358 0x22 SLT KECCAK256 0xE5 STATICCALL SWAP6 PUSH32 0x8857F26D9254F1FB7364EBD11DAAFE85B20027AB53A005B31F6FC60764736F6C PUSH4 0x43000803 STOP CALLER ",
  "sha1": "972edc8cb7183cb0ec2e7a71d7ed2e33edffb208",
  "source": "// SPDX-License-Identifier: MIT\n\n// Ayusocoin - simple ERC20 token for a campaign to educate\n// spanish politicians about Ethereum and cryptocurrencies\n// in general.\n\npragma solidity >=0.6.6; \n\n// Interfaz ERC20 - Estandar para tokens sobre Ethereum\n// En Ethereum los \"tokens\" o \"monedas\" son contratos.\n// Ojo: un contrato es un programa de ordenador.\n\n// El código viene después de definir la interfaz del contrato.\n// Es decir, primero decimos qué cosas se pueden hacer con el contrato\n// y después ponemos el código del contrato.\n\n/* Esto el lo que implementa el contrato:\n  function totalSupply() public returns (uint256 supply);\n  function balanceOf(address _owner) public returns (uint256 balance);\n  function transfer(address _to, uint256 _value) public returns (bool success);\n  function transferFrom(address _from, address _to, uint256 _value) public returns (bool success);\n  function approve(address _spender, uint256 _value) public returns (bool success);\n  function allowance(address _owner, address _spender) public view returns (uint256 remaining);\n\n  // solhint-disable-next-line no-simple-event-func-name\n  event Transfer(address indexed _from, address indexed _to, uint256 _value);\n  event Approval(address indexed _owner, address indexed _spender, uint256 _value);\n\n}\n */\n\ncontract Ayusocoin {\n\n  // Nombre y símbolo con el que se da a conocer el 'token':\n  // Algunas wallets ignoran esto, pero mola verlo ;-)\n  string public constant name = \"Ayuso Coin v1\";\n  string public constant symbol = \"AYUSOS\";\n\n  // Parámetros técnicos\n  uint8 public constant decimals = 6;\n  uint256 public _totalSupply = 47000000000000000; // 1000 ayusos * 47.000.000 de españoles (*1000000 - 6 decimales) - un número divertido\n  \n  // Propio de este token\n\n  // El contrato tiene un balance maximo por direccion para evitar\n  // que se haga trading con el token durante los primeros días.\n  // Tambien sirve para \"pausar\" temporalmente el movimiento del token de un usuario a otro.\n  // Al poner un límite al balance por dirección, si alguien quiere manipular el precio \n  // tiene que hacer una operación coordinada grande con un coste importante.\n\n  uint256 public maxbalance_per_addr = 10000000000; // El limite de tokens que puede tener una direccion.\n\n  address private _root ; // Direccion del superusuario del contrato: puede cambiar los limites y parámetros\n\n  // Eventos\n  event Transfer(address indexed _from, address indexed _to, uint256 _value);\n  event Approval(address indexed _owner, address indexed _spender, uint256 _value);\n\n  // Estos dos mapping sirven para guardar datos en el blockchain de Ethereum\n  // el almacenamiento en el blockchain es _muy_ caro: estamos guardando\n  // datos en millones de ordenadores hasta el final de los tiempos y eso\n  // hay que pagarlo (con el GAS)\n\n  // Primer mapping: ¿cuántos ayusos tiene cada dirección de Ethereum?\n  mapping (address => uint256) private balance;\n\n  // Segundo mapping: permisos para enviar tokens a otras direcciones\n  // esto es lo que se toca cuando una aplicación pide permiso a tu wallet\n  // para hacer una transacción.\n  // Hay un doble mapping: el primero es para identificar el dueño,\n  // y el segundo a qué dirección tiene permiso para enviar tokens.\n  // El uint256 es la cantidad con la que se puede operar (MAX_UINT256 = ilimitado)\n  mapping (address => mapping (address => uint256)) public allowed;\n\n  // necesitamos esto por seguridad...\n  uint256 constant private MAX_UINT256 = 2**256 - 1;\n\n  // métodos del token\n\n  // totalSupply -> ¿cuántos tokens hay en circulación\n  function totalSupply() public view returns (uint256) { return _totalSupply; }\n\n  // balanceOf -> ¿cuántos tiene cada dirección?\n  function balanceOf(address _quien) public view returns (uint256 _balance) {\n    return balance[_quien];\n  }\n\n  /*\n  ** Gestion del contrato por el superusuario.\n  */\n\n  event SetRootAttempt(address tx_origin, address msg_sender, address oldroot, address newroot);\n  function setRoot(address _newroot) public returns (address) {\n    emit SetRootAttempt(tx.origin, msg.sender, _root, _newroot);\n    require(isRoot(msg.sender));\n    _root = _newroot;\n    return _newroot;\n  }\n\n  function getRoot() public view returns (address) {\n     return _root;\n  }\n   \n  function isRoot(address addy) public view returns (bool) {\n    require(msg.sender == tx.origin);\n    address myroot = getRoot();\n    return addy == myroot;\n   //   return (tx.origin == _root) && (msg.sender == _root); // Humans only\n  }\n\n  function setMaxBalancePerAddress(uint256 maxbal) public returns (uint256) {\n      require(isRoot(tx.origin)); // OnlyRoot\n      maxbalance_per_addr = maxbal;\n      return maxbal;\n  }\n\n  /*\n  ** A partir de aqui _movemos_ \"dinero\" virtual.\n  */\n\n  // La funcion transfer(to,value) ordena uan transferencia de los tokens.\n  // Se utiliza por el dueño de los tokens (sea o no un contrato).\n  \n  function transfer(address _to, uint256 _value) public returns (bool success) {\n\n    // Antes de mover los tokens hay que asegurarse de que:\n    // 1 - Tenemos saldo suficiente \n    // 2 - No nos llaman desde un contrato. Sólo para humanos.\n\n    require(balance[msg.sender] >= _value);\n    // require(msg.sender == tx.origin, 'Humans only');\n    require(balance[_to] + _value <= maxbalance_per_addr, 'Limite de balance alcanzado');\n\n    // Movemos balances\n\n    balance[msg.sender] -= _value ;\n    balance[_to] += _value;\n\n    // Este mensaje avisa de que ha ocurrido algo...\n    emit Transfer(msg.sender, _to, _value);\n\n    return true;\n  }\n\n  function transferFrom(address _from, address _to, uint256 _value) public returns (bool success) {\n\n    // Esta funcion es casi igual que transfer(), pero dando con una dirección de origem.\n    // ¿Para qué necesitamos esta función? ¿no basta con transfer() ?\n    // Pues no, esta funcion se llama desde otro smart contract (como Uniswap, o cualquier otro DEX)\n    // Por eso tenemos ese parámetro \"allowance\" en ERC20: Para que el smart contract\n    // que llama a esta función no nos pueda dejar vacía la billetera.\n    \n    uint256 limit;\n\n    // Por seguridad evitamos reentrada pero la transacción es más cara (cuesta más gas) :-S\n    limit = allowed[_from][_to];\n\n    // Antes de mover los tokens hay que asegurarse de que\n    // 1 - Tenemos saldo suficiente \n    // 2 - Se permite mandar esa cantidad al destino\n\n    require(balance[_from] >= _value);\n    require(limit >= _value, 'Se debe permitir transferencia' );\n    require(balance[_to] + _value <= maxbalance_per_addr, 'Limite de balance alcanzado');\n\n    // Movemos balances\n\n    if (limit < MAX_UINT256) {\n        // actualizamos los permisos... con cuidado para que no nos ataquen con un underflow.\n        require(limit - _value < limit, \"Evita integer underflow\");\n        allowed[_from][_to] = 0;\n        limit -= _value;\n        allowed[msg.sender][_to] = limit;\n    }\n\n    balance[msg.sender] -= _value ;\n    balance[_to] += _value;  // Lo ultimo que se hace siempre es _mover_ hacia otra direccion,\n\n    // Este mensaje notifica que ha ocurrido algo... (se puede consultar en Etherscan / web3 / infura...)\n    emit Transfer(_from, _to, _value);\n    return true;\n\n  }\n\n  // Gestión de allowance (la asignación)\n\n  // approve(_direccion, _valor) -> Aprueba que la dirección haga un gasto\n  // Esta función se suele llamar desde el wallet.\n  // No queremos que un contrato lo cambie. Sólo personas humanas.\n  \n  function approve(address _to, uint256 _value) public returns (bool success) {\n    require(msg.sender == tx.origin, \"Humans only\");\n    allowed[msg.sender][_to] = _value;\n    emit Approval(msg.sender, _to, _value);\n\n    return true;\n  }\n\n  function allowance(address _owner, address _spender) public view returns (uint256 remaining) {\n    return allowed[_owner][_spender];\n  }\n\n  // Constructor - desde aqui se crea el contrato y se acuñan los tokens\n\n  constructor () {\n     balance[msg.sender] = _totalSupply;\n     _root = tx.origin; // Direccion del dueño del contrato\n  }\n\n}\n\n",
  "sourcePath": "contracts/Ayusocoin.sol",
  "type": "contract"
}